{
  "address": "0xaD539c6c7521fccfAf3c5C45B13Dd5b93e19c3A6",
  "abi": [
    {
      "inputs": [
        {
          "internalType": "address",
          "name": "_owner",
          "type": "address"
        }
      ],
      "stateMutability": "nonpayable",
      "type": "constructor"
    },
    {
      "inputs": [
        {
          "internalType": "address",
          "name": "sender",
          "type": "address"
        },
        {
          "internalType": "uint256",
          "name": "tokenId",
          "type": "uint256"
        },
        {
          "internalType": "address",
          "name": "owner",
          "type": "address"
        }
      ],
      "name": "ERC721IncorrectOwner",
      "type": "error"
    },
    {
      "inputs": [
        {
          "internalType": "address",
          "name": "operator",
          "type": "address"
        },
        {
          "internalType": "uint256",
          "name": "tokenId",
          "type": "uint256"
        }
      ],
      "name": "ERC721InsufficientApproval",
      "type": "error"
    },
    {
      "inputs": [
        {
          "internalType": "address",
          "name": "approver",
          "type": "address"
        }
      ],
      "name": "ERC721InvalidApprover",
      "type": "error"
    },
    {
      "inputs": [
        {
          "internalType": "address",
          "name": "operator",
          "type": "address"
        }
      ],
      "name": "ERC721InvalidOperator",
      "type": "error"
    },
    {
      "inputs": [
        {
          "internalType": "address",
          "name": "owner",
          "type": "address"
        }
      ],
      "name": "ERC721InvalidOwner",
      "type": "error"
    },
    {
      "inputs": [
        {
          "internalType": "address",
          "name": "receiver",
          "type": "address"
        }
      ],
      "name": "ERC721InvalidReceiver",
      "type": "error"
    },
    {
      "inputs": [
        {
          "internalType": "address",
          "name": "sender",
          "type": "address"
        }
      ],
      "name": "ERC721InvalidSender",
      "type": "error"
    },
    {
      "inputs": [
        {
          "internalType": "uint256",
          "name": "tokenId",
          "type": "uint256"
        }
      ],
      "name": "ERC721NonexistentToken",
      "type": "error"
    },
    {
      "inputs": [
        {
          "internalType": "address",
          "name": "owner",
          "type": "address"
        }
      ],
      "name": "OwnableInvalidOwner",
      "type": "error"
    },
    {
      "inputs": [
        {
          "internalType": "address",
          "name": "account",
          "type": "address"
        }
      ],
      "name": "OwnableUnauthorizedAccount",
      "type": "error"
    },
    {
      "anonymous": false,
      "inputs": [
        {
          "indexed": true,
          "internalType": "address",
          "name": "owner",
          "type": "address"
        },
        {
          "indexed": true,
          "internalType": "address",
          "name": "approved",
          "type": "address"
        },
        {
          "indexed": true,
          "internalType": "uint256",
          "name": "tokenId",
          "type": "uint256"
        }
      ],
      "name": "Approval",
      "type": "event"
    },
    {
      "anonymous": false,
      "inputs": [
        {
          "indexed": true,
          "internalType": "address",
          "name": "owner",
          "type": "address"
        },
        {
          "indexed": true,
          "internalType": "address",
          "name": "operator",
          "type": "address"
        },
        {
          "indexed": false,
          "internalType": "bool",
          "name": "approved",
          "type": "bool"
        }
      ],
      "name": "ApprovalForAll",
      "type": "event"
    },
    {
      "anonymous": false,
      "inputs": [
        {
          "indexed": true,
          "internalType": "address",
          "name": "owner",
          "type": "address"
        },
        {
          "indexed": true,
          "internalType": "uint256",
          "name": "tokenId",
          "type": "uint256"
        },
        {
          "indexed": false,
          "internalType": "uint8",
          "name": "r",
          "type": "uint8"
        },
        {
          "indexed": false,
          "internalType": "uint8",
          "name": "g",
          "type": "uint8"
        },
        {
          "indexed": false,
          "internalType": "uint8",
          "name": "b",
          "type": "uint8"
        }
      ],
      "name": "ColorUpdated",
      "type": "event"
    },
    {
      "anonymous": false,
      "inputs": [
        {
          "indexed": true,
          "internalType": "address",
          "name": "minter",
          "type": "address"
        },
        {
          "indexed": true,
          "internalType": "uint256",
          "name": "tokenId",
          "type": "uint256"
        },
        {
          "indexed": false,
          "internalType": "uint256",
          "name": "x",
          "type": "uint256"
        },
        {
          "indexed": false,
          "internalType": "uint256",
          "name": "y",
          "type": "uint256"
        }
      ],
      "name": "GridBoxMinted",
      "type": "event"
    },
    {
      "anonymous": false,
      "inputs": [
        {
          "indexed": true,
          "internalType": "address",
          "name": "previousOwner",
          "type": "address"
        },
        {
          "indexed": true,
          "internalType": "address",
          "name": "newOwner",
          "type": "address"
        }
      ],
      "name": "OwnershipTransferred",
      "type": "event"
    },
    {
      "anonymous": false,
      "inputs": [
        {
          "indexed": true,
          "internalType": "address",
          "name": "from",
          "type": "address"
        },
        {
          "indexed": true,
          "internalType": "address",
          "name": "to",
          "type": "address"
        },
        {
          "indexed": true,
          "internalType": "uint256",
          "name": "tokenId",
          "type": "uint256"
        }
      ],
      "name": "Transfer",
      "type": "event"
    },
    {
      "inputs": [],
      "name": "COLOR_STEP",
      "outputs": [
        {
          "internalType": "uint256",
          "name": "",
          "type": "uint256"
        }
      ],
      "stateMutability": "view",
      "type": "function"
    },
    {
      "inputs": [],
      "name": "GRID_SIZE",
      "outputs": [
        {
          "internalType": "uint256",
          "name": "",
          "type": "uint256"
        }
      ],
      "stateMutability": "view",
      "type": "function"
    },
    {
      "inputs": [],
      "name": "MAX_SUPPLY",
      "outputs": [
        {
          "internalType": "uint256",
          "name": "",
          "type": "uint256"
        }
      ],
      "stateMutability": "view",
      "type": "function"
    },
    {
      "inputs": [
        {
          "internalType": "address",
          "name": "to",
          "type": "address"
        },
        {
          "internalType": "uint256",
          "name": "tokenId",
          "type": "uint256"
        }
      ],
      "name": "approve",
      "outputs": [],
      "stateMutability": "nonpayable",
      "type": "function"
    },
    {
      "inputs": [
        {
          "internalType": "address",
          "name": "owner",
          "type": "address"
        }
      ],
      "name": "balanceOf",
      "outputs": [
        {
          "internalType": "uint256",
          "name": "",
          "type": "uint256"
        }
      ],
      "stateMutability": "view",
      "type": "function"
    },
    {
      "inputs": [
        {
          "internalType": "uint256",
          "name": "tokenId",
          "type": "uint256"
        }
      ],
      "name": "getApproved",
      "outputs": [
        {
          "internalType": "address",
          "name": "",
          "type": "address"
        }
      ],
      "stateMutability": "view",
      "type": "function"
    },
    {
      "inputs": [
        {
          "internalType": "uint256",
          "name": "tokenId",
          "type": "uint256"
        }
      ],
      "name": "getCoordinates",
      "outputs": [
        {
          "internalType": "uint256",
          "name": "x",
          "type": "uint256"
        },
        {
          "internalType": "uint256",
          "name": "y",
          "type": "uint256"
        }
      ],
      "stateMutability": "pure",
      "type": "function"
    },
    {
      "inputs": [],
      "name": "getMintedTokens",
      "outputs": [
        {
          "internalType": "uint256[]",
          "name": "",
          "type": "uint256[]"
        }
      ],
      "stateMutability": "view",
      "type": "function"
    },
    {
      "inputs": [
        {
          "internalType": "uint256",
          "name": "tokenId",
          "type": "uint256"
        }
      ],
      "name": "getTokenColor",
      "outputs": [
        {
          "internalType": "uint8",
          "name": "r",
          "type": "uint8"
        },
        {
          "internalType": "uint8",
          "name": "g",
          "type": "uint8"
        },
        {
          "internalType": "uint8",
          "name": "b",
          "type": "uint8"
        }
      ],
      "stateMutability": "view",
      "type": "function"
    },
    {
      "inputs": [
        {
          "internalType": "uint256",
          "name": "tokenId",
          "type": "uint256"
        }
      ],
      "name": "getTokenColorHex",
      "outputs": [
        {
          "internalType": "string",
          "name": "",
          "type": "string"
        }
      ],
      "stateMutability": "view",
      "type": "function"
    },
    {
      "inputs": [
        {
          "internalType": "uint256",
          "name": "x",
          "type": "uint256"
        },
        {
          "internalType": "uint256",
          "name": "y",
          "type": "uint256"
        }
      ],
      "name": "getTokenId",
      "outputs": [
        {
          "internalType": "uint256",
          "name": "tokenId",
          "type": "uint256"
        }
      ],
      "stateMutability": "pure",
      "type": "function"
    },
    {
      "inputs": [
        {
          "internalType": "address",
          "name": "owner",
          "type": "address"
        },
        {
          "internalType": "address",
          "name": "operator",
          "type": "address"
        }
      ],
      "name": "isApprovedForAll",
      "outputs": [
        {
          "internalType": "bool",
          "name": "",
          "type": "bool"
        }
      ],
      "stateMutability": "view",
      "type": "function"
    },
    {
      "inputs": [
        {
          "internalType": "uint256",
          "name": "tokenId",
          "type": "uint256"
        }
      ],
      "name": "isTokenMinted",
      "outputs": [
        {
          "internalType": "bool",
          "name": "",
          "type": "bool"
        }
      ],
      "stateMutability": "view",
      "type": "function"
    },
    {
      "inputs": [
        {
          "internalType": "uint256",
          "name": "tokenId",
          "type": "uint256"
        }
      ],
      "name": "mintGridBox",
      "outputs": [],
      "stateMutability": "nonpayable",
      "type": "function"
    },
    {
      "inputs": [
        {
          "internalType": "uint256",
          "name": "",
          "type": "uint256"
        }
      ],
      "name": "mintedTokens",
      "outputs": [
        {
          "internalType": "bool",
          "name": "",
          "type": "bool"
        }
      ],
      "stateMutability": "view",
      "type": "function"
    },
    {
      "inputs": [],
      "name": "name",
      "outputs": [
        {
          "internalType": "string",
          "name": "",
          "type": "string"
        }
      ],
      "stateMutability": "view",
      "type": "function"
    },
    {
      "inputs": [],
      "name": "owner",
      "outputs": [
        {
          "internalType": "address",
          "name": "",
          "type": "address"
        }
      ],
      "stateMutability": "view",
      "type": "function"
    },
    {
      "inputs": [
        {
          "internalType": "uint256",
          "name": "tokenId",
          "type": "uint256"
        }
      ],
      "name": "ownerOf",
      "outputs": [
        {
          "internalType": "address",
          "name": "",
          "type": "address"
        }
      ],
      "stateMutability": "view",
      "type": "function"
    },
    {
      "inputs": [],
      "name": "renounceOwnership",
      "outputs": [],
      "stateMutability": "nonpayable",
      "type": "function"
    },
    {
      "inputs": [
        {
          "internalType": "address",
          "name": "from",
          "type": "address"
        },
        {
          "internalType": "address",
          "name": "to",
          "type": "address"
        },
        {
          "internalType": "uint256",
          "name": "tokenId",
          "type": "uint256"
        }
      ],
      "name": "safeTransferFrom",
      "outputs": [],
      "stateMutability": "nonpayable",
      "type": "function"
    },
    {
      "inputs": [
        {
          "internalType": "address",
          "name": "from",
          "type": "address"
        },
        {
          "internalType": "address",
          "name": "to",
          "type": "address"
        },
        {
          "internalType": "uint256",
          "name": "tokenId",
          "type": "uint256"
        },
        {
          "internalType": "bytes",
          "name": "data",
          "type": "bytes"
        }
      ],
      "name": "safeTransferFrom",
      "outputs": [],
      "stateMutability": "nonpayable",
      "type": "function"
    },
    {
      "inputs": [
        {
          "internalType": "address",
          "name": "operator",
          "type": "address"
        },
        {
          "internalType": "bool",
          "name": "approved",
          "type": "bool"
        }
      ],
      "name": "setApprovalForAll",
      "outputs": [],
      "stateMutability": "nonpayable",
      "type": "function"
    },
    {
      "inputs": [
        {
          "internalType": "bytes4",
          "name": "interfaceId",
          "type": "bytes4"
        }
      ],
      "name": "supportsInterface",
      "outputs": [
        {
          "internalType": "bool",
          "name": "",
          "type": "bool"
        }
      ],
      "stateMutability": "view",
      "type": "function"
    },
    {
      "inputs": [],
      "name": "symbol",
      "outputs": [
        {
          "internalType": "string",
          "name": "",
          "type": "string"
        }
      ],
      "stateMutability": "view",
      "type": "function"
    },
    {
      "inputs": [
        {
          "internalType": "uint256",
          "name": "",
          "type": "uint256"
        }
      ],
      "name": "tokenColors",
      "outputs": [
        {
          "internalType": "uint8",
          "name": "r",
          "type": "uint8"
        },
        {
          "internalType": "uint8",
          "name": "g",
          "type": "uint8"
        },
        {
          "internalType": "uint8",
          "name": "b",
          "type": "uint8"
        }
      ],
      "stateMutability": "view",
      "type": "function"
    },
    {
      "inputs": [
        {
          "internalType": "uint256",
          "name": "tokenId",
          "type": "uint256"
        }
      ],
      "name": "tokenURI",
      "outputs": [
        {
          "internalType": "string",
          "name": "",
          "type": "string"
        }
      ],
      "stateMutability": "view",
      "type": "function"
    },
    {
      "inputs": [],
      "name": "totalSupply",
      "outputs": [
        {
          "internalType": "uint256",
          "name": "",
          "type": "uint256"
        }
      ],
      "stateMutability": "view",
      "type": "function"
    },
    {
      "inputs": [
        {
          "internalType": "address",
          "name": "from",
          "type": "address"
        },
        {
          "internalType": "address",
          "name": "to",
          "type": "address"
        },
        {
          "internalType": "uint256",
          "name": "tokenId",
          "type": "uint256"
        }
      ],
      "name": "transferFrom",
      "outputs": [],
      "stateMutability": "nonpayable",
      "type": "function"
    },
    {
      "inputs": [
        {
          "internalType": "address",
          "name": "newOwner",
          "type": "address"
        }
      ],
      "name": "transferOwnership",
      "outputs": [],
      "stateMutability": "nonpayable",
      "type": "function"
    },
    {
      "inputs": [
        {
          "internalType": "uint256",
          "name": "tokenId",
          "type": "uint256"
        },
        {
          "internalType": "uint8",
          "name": "r",
          "type": "uint8"
        },
        {
          "internalType": "uint8",
          "name": "g",
          "type": "uint8"
        },
        {
          "internalType": "uint8",
          "name": "b",
          "type": "uint8"
        }
      ],
      "name": "updateColor",
      "outputs": [],
      "stateMutability": "nonpayable",
      "type": "function"
    },
    {
      "inputs": [
        {
          "internalType": "uint256",
          "name": "tokenId",
          "type": "uint256"
        },
        {
          "internalType": "uint8",
          "name": "rStep",
          "type": "uint8"
        },
        {
          "internalType": "uint8",
          "name": "gStep",
          "type": "uint8"
        },
        {
          "internalType": "uint8",
          "name": "bStep",
          "type": "uint8"
        }
      ],
      "name": "updateColorBySteps",
      "outputs": [],
      "stateMutability": "nonpayable",
      "type": "function"
    },
    {
      "inputs": [],
      "name": "withdraw",
      "outputs": [],
      "stateMutability": "nonpayable",
      "type": "function"
    },
    {
      "stateMutability": "payable",
      "type": "receive"
    }
  ],
  "transactionHash": "0xdcfb3f3c04185c321a979986850be9727fa1099f8b9c988b57f1012091d6e009",
  "args": [
    "0x612503022Fe8a0296e7D4d0D755188DBD25aE87d"
  ],
  "numDeployments": 1,
  "solcInputHash": "810760c264b58ec0a3d1c99efb07372f",
  "bytecode": "0x6080604081815234620004545781620024e980380380916200002282856200048b565b83396020938491810103126200045457516001600160a01b038082169390918490036200045457825193620000578562000459565b600785526611dc9a5913919560ca1b82860152835192620000788462000459565b60048085526311d4925160e21b848601528651966001600160401b038089116200043f57600096875499600193848c811c9c16801562000434575b898d101462000421578190601f9c8d8111620003ce575b5089908d83116001146200036a578b926200035e575b5050600019600383901b1c191690841b1788555b80519182116200034b5782548381811c9116801562000340575b888210146200032d5790818b849311620002da575b5087908b8311600114620002765789926200026a575b5050600019600383901b1c191690821b1790555b8215620002535750600680546001600160a01b031981168417909155167f8be0079c531659141344cd1fd0a4f28419497f9722a3daafe3b4186f6b6457e08480a381600755825193620001a08562000459565b601a85527f477269644e465420636f6e7472616374206465706c6f79656421000000000000828601528351908282019263104c13eb60e21b8452806024840152865196876044850152855b8881106200023e57505050606482876200021f938784819a9b85010152601f1991011681010360448101845201826200048b565b51906a636f6e736f6c652e6c6f675afa50516120399081620004b08239f35b818101830151858201606401528201620001eb565b8551631e4fbdf760e01b8152908101859052602490fd5b01519050388062000139565b848a52888a208594509190601f1984168b5b8b828210620002c35750508411620002a9575b505050811b0190556200014d565b015160001960f88460031b161c191690553880806200029b565b838501518655889790950194938401930162000288565b9091508389528789208b80850160051c8201928a861062000323575b918691869594930160051c01915b8281106200031457505062000123565b8b815585945086910162000304565b92508192620002f6565b634e487b7160e01b895260228552602489fd5b90607f16906200010e565b634e487b7160e01b885260418452602488fd5b015190503880620000e0565b8b80528a8c208794509190601f1984168d5b8d828210620003b757505084116200039d575b505050811b018855620000f4565b015160001960f88460031b161c191690553880806200038f565b8385015186558a979095019493840193016200037c565b9091508a8052898b208d80850160051c8201928c861062000417575b918891869594930160051c01915b82811062000408575050620000ca565b8d8155859450889101620003f8565b92508192620003ea565b634e487b7160e01b8a526022865260248afd5b9b607f169b620000b3565b604183634e487b7160e01b6000525260246000fd5b600080fd5b604081019081106001600160401b038211176200047557604052565b634e487b7160e01b600052604160045260246000fd5b601f909101601f19168101906001600160401b03821190821017620004755760405256fe60806040818152600480361015610021575b505050361561001f57600080fd5b005b600092833560e01c90816301ffc9a71461167b5750806305f979881461165f57806306fdde0314611594578063081812fc14611559578063095ea7b31461147d5780630af12ee71461125b5780630bf378181461123157806318160ddd1461121257806323b872dd146111fa5780632eedb69a146111c65780633112de9a1461110457806332cb6b0c146110e75780633ccfd60b1461102a57806342842e0e14610fdb57806350dc172214610f905780636352211e14610f5f57806370a0823114610f0a578063715018a614610ead5780637ef758d414610e815780637fc4eda814610e655780638cfe966514610de05780638da5cb5b14610db75780638f96a7cb14610d6b57806395d89b4114610c5557806397fda88e14610978578063a22cb465146108d7578063b88d4fde1461084e578063c87b56dd14610456578063dc9652901461035e578063e985e9c514610310578063f041923c1461021c5763f2fde38b036100115734610218576020366003190112610218576101a361172f565b906101ac611841565b6001600160a01b03918216928315610202575050600654826bffffffffffffffffffffffff60a01b821617600655167f8be0079c531659141344cd1fd0a4f28419497f9722a3daafe3b4186f6b6457e08380a380f35b51631e4fbdf760e01b8152908101849052602490fd5b8280fd5b50503461030c57610306907fbfb8dbeb9d689548b5e0f1d93b0b48c604bbf13038c2e332abc552249353ef6c61025136611760565b9295909194868852600260205261027460018060a01b03828a2054163314611bfe565b868852600860205261028b60ff828a205416611c4a565b8051610296816117d1565b60ff871681526020810160ff8516815282820160ff87168152898b52600960205260ff848c2093511662ff000061ff008554945160081b16925160101b169262ffffff191617171790555192839233968491604091949360ff809281606087019816865216602085015216910152565b0390a380f35b5080fd5b50503461030c578060031936011261030c5760ff8160209361033061172f565b61033861174a565b6001600160a01b0391821683526005875283832091168252855220549151911615158152f35b509134610453578060031936011261045357916007549261039661038185611e83565b9461038e85519687611803565b808652611e83565b60208086019591601f190136873760019383855b6101008111156103ea575050508451948186019282875251809352850195925b8281106103d75785870386f35b83518752958101959281019284016103ca565b8086949596999799526008855260ff8885205416610418575b61040c90611bd9565b979597949392946103aa565b9085518110156104405761043881838761040c9460051b8a010152611bd9565b919050610403565b634e487b7160e01b845260328352602484fd5b80fd5b508234610453576020918260031936011261030c5735808252600283528382205484929061048e906001600160a01b03161515611c4a565b61049782611e48565b95909183815260098652208351906104ae826117d1565b549060ff96878316825286820190888460081c168252888784019460101c1684526104d886611c8d565b956104e290611e9b565b956104ec86611e9b565b9980806104f885611e9b565b9861050290611e9b565b9461050c90611e9b565b96511661051890611e9b565b94511661052490611e9b565b95511661053090611e9b565b9588519a8b98737b226e616d65223a20224772696420426f78202360601b8c8b0152805190818d60348d01920191610567926116e7565b8901603481017f222c20226465736372697074696f6e223a20224120636f6c6c65637469626c659052605481017f206772696420626f78204e465420617420636f6f7264696e61746573202800009052815191828d607284019201916105cc926116e7565b016072810161016160f51b9052815191828c607484019201916105ee926116e7565b0191607483017f29207769746820637573746f6d2052474220636f6c6f72222c0000000000000090526e2261747472696275746573223a205b60881b608d840152609c83017f7b2274726169745f74797065223a20225820436f6f7264696e617465222c202290526703b30b63ab2911d160c51b928360bc820152815191828c60c4840192019161067e926116e7565b0193611f4b60f21b9485938460c483015260c682017f7b2274726169745f74797065223a20225920436f6f7264696e617465222c2022905260e6820152815191828c60ee84019201916106d0926116e7565b018260ee82015260f081017f7b2274726169745f74797065223a2022436f6c6f7220486578222c202276616c9052653ab2911d101160d11b61011082015281519061011692828c858401920191610726926116e7565b62089f4b60ea1b9101918201527f7b2274726169745f74797065223a2022526564222c202276616c7565223a2000610119820152825161013893909190610774908390868401908d016116e7565b019182015261013a81017f7b2274726169745f74797065223a2022477265656e222c202276616c7565223a905261015a8101600160fd1b905282519061015b9382898684019201916107c5926116e7565b019182015261015d81017f7b2274726169745f74797065223a2022426c7565222c202276616c7565223a20905281519061017d92828785840192019161080a926116e7565b01908101607d60f81b905261017e8101615d7d60f01b90520361016081018452610180016108389084611803565b51918183928352820161084a9161170a565b0390f35b5090346102185760803660031901126102185761086961172f565b61087161174a565b846064359467ffffffffffffffff861161030c573660238701121561030c57850135946108a96108a087611825565b95519586611803565b858552366024878301011161030c57856108d496602460209301838801378501015260443591611a0c565b80f35b5090346102185780600319360112610218576108f161172f565b9060243591821515809303610974576001600160a01b031692831561095f5750338452600560205280842083855260205280842060ff1981541660ff8416179055519081527f17307eab39ab6107e8899845ad3d59bd9653f200f220920489ca2b5937696c3160203392a380f35b836024925191630b61174360e31b8352820152fd5b8480fd5b5082903461030c576020908160031936011261021857803590600182101580610c49575b6109a590611b9a565b8184526008835260ff8585205416610c0f5781845260088352848420600160ff198254161790556109d7600754611bd9565b6007556000199082820190838211610bfc57601083850891811c923315610be55784875260028652878720546001600160a01b03168015159186919083610bb3575b5033808a52600389528a8a2080546001019055828a52600289528a8a2080546001600160a01b03191682179055907fddf252ad1be2c89b69c2b068fc378daa952ba7f163c4a11628f55a4df523b3ef8a80a4610b9c5750610b88859485948894610b6a948651610a88816117d1565b60ff815284810160ff815288820160ff8152858b526009875260ff8a8c2093511662ff000061ff008554945160081b16925160101b169262ffffff1916171717905582875182815283868201527fd50915639931766d5f05d8dd1f4c484ab778bc662aa2ffc7b2b7a4ba43d4ac9c893392a3865196610b06886117d1565b603188527f4772696420626f78206d696e7465643a20746f6b656e49642025732c20636f6f85890152707264696e61746573202825732c2025732960781b818901525195869485019763a7a8785360e01b89526080602487015260a486019061170a565b9260448501526064840152608483015203601f198101835282611803565b51906a636f6e736f6c652e6c6f675afa5080f35b86516339e3563760e11b8152908101869052602490fd5b600083815260046020526040902080546001600160a01b0319169055818a52600389528a8a209081540190558a610a19565b8751633250574960e11b8152808301889052602490fd5b634e487b7160e01b865260119052602485fd5b845162461bcd60e51b81529081018390526014602482015273151bdad95b88185b1c9958591e481b5a5b9d195960621b6044820152606490fd5b5061010082111561099c565b5091346104535780600319360112610453578151918160019283549384811c91818616958615610d61575b6020968785108114610d4e578899509688969785829a529182600014610d27575050600114610ccc575b50505061084a9291610cbd910385611803565b5192828493845283019061170a565b91908693508083527fb10e2d527612073b26eecdfd717e6a320cf44b4afac2b0732d9fcbe2b7fa0cf65b828410610d0f5750505082010181610cbd61084a610caa565b8054848a018601528895508794909301928101610cf6565b60ff19168782015293151560051b86019093019350849250610cbd915061084a9050610caa565b634e487b7160e01b835260228a52602483fd5b92607f1692610c80565b5034610218576020366003190112610218578160209360ff9235600181101580610dab575b610d9990611b9a565b81526008855220541690519015158152f35b50610100811115610d90565b50503461030c578160031936011261030c5760065490516001600160a01b039091168152602090f35b503461021857602036600319011261021857918192358082526008602052610e0d60ff8484205416611c4a565b815260096020522061084a825191610e24836117d1565b5460ff808216808552600883901c8216602080870182905260109490941c909216948601859052945194855290840152604083019190915281906060820190565b50503461030c578160031936011261030c576020905160108152f35b5034610218576020366003190112610218578160209360ff923581526008855220541690519015158152f35b8334610453578060031936011261045357610ec6611841565b600680546001600160a01b0319811690915581906001600160a01b03167f8be0079c531659141344cd1fd0a4f28419497f9722a3daafe3b4186f6b6457e08280a380f35b509134610453576020366003190112610453576001600160a01b03610f2d61172f565b16928315610f4a5750806020938392526003845220549051908152f35b91516322718ad960e21b815291820152602490fd5b5091346104535760203660031901126104535750610f7f60209235611b2f565b90516001600160a01b039091168152f35b503461021857602036600319011261021857358252600960209081529181902054905160ff8083168252600883901c81169382019390935260109190911c9091166040820152606090f35b5091903461030c57610fec3661179c565b91835193602085019085821067ffffffffffffffff831117611017576108d496975052858452611a0c565b634e487b7160e01b875260418852602487fd5b509034610218578260031936011261021857611044611841565b4780156110ad5760065484918291829182916001600160a01b03165af1611069611b6a565b5015611073578280f35b906020606492519162461bcd60e51b835282015260146024820152732330b4b632b2103a379039b2b7321022ba3432b960611b6044820152fd5b815162461bcd60e51b815260208185015260146024820152734e6f2066756e647320746f20776974686472617760601b6044820152606490fd5b50503461030c578160031936011261030c57602090516101008152f35b5091903461030c578060031936011261030c57823560243560108210806111bc575b156111835780851b9080820460101490151715611170579061114791611d66565b916001830180931161115d576020838351908152f35b634e487b7160e01b815260118452602490fd5b634e487b7160e01b845260118552602484fd5b825162461bcd60e51b81526020818701526013602482015272496e76616c696420636f6f7264696e6174657360681b6044820152606490fd5b5060108110611126565b50913461045357602036600319011261045357506111e761084a9235611c8d565b905191829160208352602083019061170a565b8334610453576108d461120c3661179c565b9161186d565b50503461030c578160031936011261030c576020906007549051908152f35b508234610453576020366003190112610453575061124f9035611e48565b82519182526020820152f35b5091903461030c5761126c36611760565b909293848652600260205261128d60018060a01b0382882054163314611bfe565b848652600860205260ff80936112a782848a205416611c4a565b16600f908181111580611471575b80611465575b1561142d5780820361141057508380955b168181036113e057508380935b1690810361138757507fbfb8dbeb9d689548b5e0f1d93b0b48c604bbf13038c2e332abc552249353ef6c939495965061030690835b81519061131a826117d1565b8088168252602082019080861682528383019080881682528a8c526009602052848c2093511662ff000061ff008554945160081b16925160101b169262ffffff191617171790555192839233968491604091949360ff809281606087019816865216602085015216910152565b6011810290808204601114901517156113cd577fbfb8dbeb9d689548b5e0f1d93b0b48c604bbf13038c2e332abc552249353ef6c9495969750908361030692169361130e565b634e487b7160e01b875260118852602487fd5b6011810290808204601114901517156113fd5784809116936112d9565b634e487b7160e01b885260118952602488fd5b6011810290808204601114901517156113fd5784809116956112cc565b825162461bcd60e51b81526020818b015260126024820152715374657073206d75737420626520302d313560701b6044820152606490fd5b508185851611156112bb565b508185871611156112b5565b50903461021857806003193601126102185761149761172f565b916024356114a481611b2f565b33151580611546575b8061151d575b611507576001600160a01b039485169482918691167f8c5be1e5ebec7d5bd14f71427d1e84f3dd0314c0f7b2291e5b200ac8c7c3b9258880a48452602052822080546001600160a01b031916909117905580f35b835163a9fbf51f60e01b81523381850152602490fd5b506001600160a01b03811686526005602090815284872033885290528386205460ff16156114b3565b506001600160a01b0381163314156114ad565b50346102185760203660031901126102185791826020933561157a81611b2f565b50825283528190205490516001600160a01b039091168152f35b50913461045357806003193601126104535781519181825492600184811c91818616958615611655575b6020968785108114610d4e578899509688969785829a529182600014610d275750506001146115fa5750505061084a9291610cbd910385611803565b91908693508280527f290decd9548b62a8d60345a988386fc84ba6bc95484008f6362f93160ef3e5635b82841061163d5750505082010181610cbd61084a610caa565b8054848a018601528895508794909301928101611624565b92607f16926115be565b50503461030c578160031936011261030c576020905160118152f35b92505034610218576020366003190112610218573563ffffffff60e01b811680910361021857602092506380ac58cd60e01b81149081156116d6575b81156116c5575b5015158152f35b6301ffc9a760e01b149050386116be565b635b5e139f60e01b811491506116b7565b60005b8381106116fa5750506000910152565b81810151838201526020016116ea565b90602091611723815180928185528580860191016116e7565b601f01601f1916010190565b600435906001600160a01b038216820361174557565b600080fd5b602435906001600160a01b038216820361174557565b6080906003190112611745576004359060243560ff81168103611745579060443560ff81168103611745579060643560ff811681036117455790565b6060906003190112611745576001600160a01b0390600435828116810361174557916024359081168103611745579060443590565b6060810190811067ffffffffffffffff8211176117ed57604052565b634e487b7160e01b600052604160045260246000fd5b90601f8019910116810190811067ffffffffffffffff8211176117ed57604052565b67ffffffffffffffff81116117ed57601f01601f191660200190565b6006546001600160a01b0316330361185557565b60405163118cdaa760e01b8152336004820152602490fd5b6001600160a01b0391821692909183156119f35760009282845282602095600287526040968488882054169687913315158061195d575b509060027fddf252ad1be2c89b69c2b068fc378daa952ba7f163c4a11628f55a4df523b3ef928461192a575b858352600381528b8320805460010190558683525289812080546001600160a01b0319168517905580a416928383036119095750505050565b6064945051926364283d7b60e01b8452600484015260248301526044820152fd5b600087815260046020526040902080546001600160a01b0319169055848352600381528b832080546000190190556118d0565b919394509150806119b2575b15611979578592918791386118a4565b878688611996576024915190637e27328960e01b82526004820152fd5b604491519063177e802f60e01b82523360048301526024820152fd5b5033871480156119d7575b806119695750858252600481523385898420541614611969565b5086825260058152878220338352815260ff88832054166119bd565b604051633250574960e11b815260006004820152602490fd5b9190611a1982828561186d565b803b611a26575b50505050565b611a6860018060a01b0380921694604051938493630a85bd0160e11b96878652336004870152166024850152604484015260806064840152608483019061170a565b03906020816000938185885af190829082611ae7575b5050611ab65782611a8d611b6a565b8051919082611aaf57604051633250574960e11b815260048101839052602490fd5b9050602001fd5b6001600160e01b03191603611acf575038808080611a20565b60249060405190633250574960e11b82526004820152fd5b909192506020813d8211611b27575b81611b0360209383611803565b8101031261030c5751906001600160e01b0319821682036104535750903880611a7e565b3d9150611af6565b6000818152600260205260409020546001600160a01b0316908115611b52575090565b60249060405190637e27328960e01b82526004820152fd5b3d15611b95573d90611b7b82611825565b91611b896040519384611803565b82523d6000602084013e565b606090565b15611ba157565b60405162461bcd60e51b815260206004820152601060248201526f125b9d985b1a59081d1bdad95b88125160821b6044820152606490fd5b6000198114611be85760010190565b634e487b7160e01b600052601160045260246000fd5b15611c0557565b60405162461bcd60e51b815260206004820152601b60248201527f4e6f7420746865206f776e6572206f66207468697320746f6b656e00000000006044820152606490fd5b15611c5157565b60405162461bcd60e51b8152602060048201526014602482015273151bdad95b88191bd95cc81b9bdd08195e1a5cdd60621b6044820152606490fd5b611d636021611cfa928060005260206008815260ff91611cb38360406000205416611c4a565b60005260098152611d0a604060002092611d028160405195611cd4876117d1565b54988996826040818a1692838152828a82019b60081c168b52019b60101c168b52611d73565b955116611d73565b965116611d73565b90611d54604051968794602360f81b84870152611d2f81518092868a8a0191016116e7565b8501611d4382518093868a850191016116e7565b0191835193849187850191016116e7565b01036001810184520182611803565b90565b91908201809211611be857565b604051906040820182811067ffffffffffffffff8211176117ed5760405260028252602082016020368237600f8260041c168060300180603011611be857611dcf91600960009111600014611e40575060ff60075b1690611d66565b91835115611e2a57600f9160ff60f81b809460f81b1660001a9053168060300180603011611be857611e1191600960009111600014611e405750600790611d66565b60f81b1660001a815160011015611e2a57602182015390565b634e487b7160e01b600052603260045260246000fd5b60ff90611dc8565b90600182101580611e77575b611e5d90611b9a565b6000198281019290818411611be857601091089160041c90565b50610100821115611e54565b67ffffffffffffffff81116117ed5760051b60200190565b806000917a184f03e93ff9f4daa797ed6e38ed64bf6a1f01000000000000000080821015611ff5575b506d04ee2d6d415b85acef810000000080831015611fe6575b50662386f26fc1000080831015611fd7575b506305f5e10080831015611fc8575b5061271080831015611fb9575b506064821015611fa9575b600a80921015611f9f575b60019081602181860195611f3487611825565b96611f426040519889611803565b808852611f51601f1991611825565b01366020890137860101905b611f69575b5050505090565b600019019083906f181899199a1a9b1b9c1cb0b131b232b360811b8282061a835304918215611f9a57919082611f5d565b611f62565b9160010191611f21565b9190606460029104910191611f16565b60049193920491019138611f0b565b60089193920491019138611efe565b60109193920491019138611eef565b60209193920491019138611edd565b604093508104915038611ec456fea2646970667358221220330c4bb539bffff36bf606356d542ce35dd67cba6206e3b57c16a0472962df8e64736f6c63430008140033",
  "devdoc": {
    "author": "BuidlGuidl",
    "errors": {
      "ERC721IncorrectOwner(address,uint256,address)": [
        {
          "details": "Indicates an error related to the ownership over a particular token. Used in transfers.",
          "params": {
            "owner": "Address of the current owner of a token.",
            "sender": "Address whose tokens are being transferred.",
            "tokenId": "Identifier number of a token."
          }
        }
      ],
      "ERC721InsufficientApproval(address,uint256)": [
        {
          "details": "Indicates a failure with the `operator`s approval. Used in transfers.",
          "params": {
            "operator": "Address that may be allowed to operate on tokens without being their owner.",
            "tokenId": "Identifier number of a token."
          }
        }
      ],
      "ERC721InvalidApprover(address)": [
        {
          "details": "Indicates a failure with the `approver` of a token to be approved. Used in approvals.",
          "params": {
            "approver": "Address initiating an approval operation."
          }
        }
      ],
      "ERC721InvalidOperator(address)": [
        {
          "details": "Indicates a failure with the `operator` to be approved. Used in approvals.",
          "params": {
            "operator": "Address that may be allowed to operate on tokens without being their owner."
          }
        }
      ],
      "ERC721InvalidOwner(address)": [
        {
          "details": "Indicates that an address can't be an owner. For example, `address(0)` is a forbidden owner in EIP-20. Used in balance queries.",
          "params": {
            "owner": "Address of the current owner of a token."
          }
        }
      ],
      "ERC721InvalidReceiver(address)": [
        {
          "details": "Indicates a failure with the token `receiver`. Used in transfers.",
          "params": {
            "receiver": "Address to which tokens are being transferred."
          }
        }
      ],
      "ERC721InvalidSender(address)": [
        {
          "details": "Indicates a failure with the token `sender`. Used in transfers.",
          "params": {
            "sender": "Address whose tokens are being transferred."
          }
        }
      ],
      "ERC721NonexistentToken(uint256)": [
        {
          "details": "Indicates a `tokenId` whose `owner` is the zero address.",
          "params": {
            "tokenId": "Identifier number of a token."
          }
        }
      ],
      "OwnableInvalidOwner(address)": [
        {
          "details": "The owner is not a valid owner account. (eg. `address(0)`)"
        }
      ],
      "OwnableUnauthorizedAccount(address)": [
        {
          "details": "The caller account is not authorized to perform an operation."
        }
      ]
    },
    "events": {
      "Approval(address,address,uint256)": {
        "details": "Emitted when `owner` enables `approved` to manage the `tokenId` token."
      },
      "ApprovalForAll(address,address,bool)": {
        "details": "Emitted when `owner` enables or disables (`approved`) `operator` to manage all of its assets."
      },
      "Transfer(address,address,uint256)": {
        "details": "Emitted when `tokenId` token is transferred from `from` to `to`."
      }
    },
    "kind": "dev",
    "methods": {
      "approve(address,uint256)": {
        "details": "See {IERC721-approve}."
      },
      "balanceOf(address)": {
        "details": "See {IERC721-balanceOf}."
      },
      "getApproved(uint256)": {
        "details": "See {IERC721-getApproved}."
      },
      "getCoordinates(uint256)": {
        "params": {
          "tokenId": "The token ID"
        },
        "returns": {
          "x": "X coordinate (0-15)",
          "y": "Y coordinate (0-15)"
        }
      },
      "getMintedTokens()": {
        "returns": {
          "_0": "An array of all minted token IDs"
        }
      },
      "getTokenColor(uint256)": {
        "params": {
          "tokenId": "The token ID"
        },
        "returns": {
          "b": "Blue value (0-255)",
          "g": "Green value (0-255)",
          "r": "Red value (0-255)"
        }
      },
      "getTokenColorHex(uint256)": {
        "params": {
          "tokenId": "The token ID"
        },
        "returns": {
          "_0": "hex color string (e.g., \"#FF5733\")"
        }
      },
      "getTokenId(uint256,uint256)": {
        "params": {
          "x": "X coordinate (0-15)",
          "y": "Y coordinate (0-15)"
        },
        "returns": {
          "tokenId": "The token ID (1-256)"
        }
      },
      "isApprovedForAll(address,address)": {
        "details": "See {IERC721-isApprovedForAll}."
      },
      "isTokenMinted(uint256)": {
        "params": {
          "tokenId": "The token ID to check"
        },
        "returns": {
          "_0": "Whether the token is minted"
        }
      },
      "mintGridBox(uint256)": {
        "params": {
          "tokenId": "The token ID to mint (1-256)"
        }
      },
      "name()": {
        "details": "See {IERC721Metadata-name}."
      },
      "owner()": {
        "details": "Returns the address of the current owner."
      },
      "ownerOf(uint256)": {
        "details": "See {IERC721-ownerOf}."
      },
      "renounceOwnership()": {
        "details": "Leaves the contract without owner. It will not be possible to call `onlyOwner` functions. Can only be called by the current owner. NOTE: Renouncing ownership will leave the contract without an owner, thereby disabling any functionality that is only available to the owner."
      },
      "safeTransferFrom(address,address,uint256)": {
        "details": "See {IERC721-safeTransferFrom}."
      },
      "safeTransferFrom(address,address,uint256,bytes)": {
        "details": "See {IERC721-safeTransferFrom}."
      },
      "setApprovalForAll(address,bool)": {
        "details": "See {IERC721-setApprovalForAll}."
      },
      "supportsInterface(bytes4)": {
        "details": "See {IERC165-supportsInterface}."
      },
      "symbol()": {
        "details": "See {IERC721Metadata-symbol}."
      },
      "transferFrom(address,address,uint256)": {
        "details": "See {IERC721-transferFrom}."
      },
      "transferOwnership(address)": {
        "details": "Transfers ownership of the contract to a new account (`newOwner`). Can only be called by the current owner."
      },
      "updateColor(uint256,uint8,uint8,uint8)": {
        "params": {
          "b": "Blue value (0-255)",
          "g": "Green value (0-255)",
          "r": "Red value (0-255)",
          "tokenId": "The token ID to update"
        }
      },
      "updateColorBySteps(uint256,uint8,uint8,uint8)": {
        "params": {
          "bStep": "Blue step (0-15, maps to 0-255)",
          "gStep": "Green step (0-15, maps to 0-255)",
          "rStep": "Red step (0-15, maps to 0-255)",
          "tokenId": "The token ID to update"
        }
      }
    },
    "version": 1
  },
  "userdoc": {
    "kind": "user",
    "methods": {
      "getCoordinates(uint256)": {
        "notice": "Function to get grid coordinates from token ID"
      },
      "getMintedTokens()": {
        "notice": "Function to get all minted tokens"
      },
      "getTokenColor(uint256)": {
        "notice": "Function to get the color of a token"
      },
      "getTokenColorHex(uint256)": {
        "notice": "Function to get color as a hex string"
      },
      "getTokenId(uint256,uint256)": {
        "notice": "Function to get token ID from coordinates"
      },
      "isTokenMinted(uint256)": {
        "notice": "Function to check if a token is minted"
      },
      "mintGridBox(uint256)": {
        "notice": "Function to mint a specific grid box as an NFT (now free!)"
      },
      "tokenURI(uint256)": {
        "notice": "Override tokenURI to provide metadata including color"
      },
      "updateColor(uint256,uint8,uint8,uint8)": {
        "notice": "Function to update the color of an NFT (only by owner)"
      },
      "updateColorBySteps(uint256,uint8,uint8,uint8)": {
        "notice": "Function to update color using steps (easier UX)"
      },
      "withdraw()": {
        "notice": "Function that allows the owner to withdraw all the Ether in the contract"
      }
    },
    "notice": "A smart contract that represents a 16x16 grid as NFTs Each box in the grid can be minted as an individual NFT (token IDs 1-256) Users can customize RGB colors for their NFTs",
    "version": 1
  },
  "storageLayout": {
    "storage": [
      {
        "astId": 317,
        "contract": "contracts/YourContract.sol:YourContract",
        "label": "_name",
        "offset": 0,
        "slot": "0",
        "type": "t_string_storage"
      },
      {
        "astId": 319,
        "contract": "contracts/YourContract.sol:YourContract",
        "label": "_symbol",
        "offset": 0,
        "slot": "1",
        "type": "t_string_storage"
      },
      {
        "astId": 323,
        "contract": "contracts/YourContract.sol:YourContract",
        "label": "_owners",
        "offset": 0,
        "slot": "2",
        "type": "t_mapping(t_uint256,t_address)"
      },
      {
        "astId": 327,
        "contract": "contracts/YourContract.sol:YourContract",
        "label": "_balances",
        "offset": 0,
        "slot": "3",
        "type": "t_mapping(t_address,t_uint256)"
      },
      {
        "astId": 331,
        "contract": "contracts/YourContract.sol:YourContract",
        "label": "_tokenApprovals",
        "offset": 0,
        "slot": "4",
        "type": "t_mapping(t_uint256,t_address)"
      },
      {
        "astId": 337,
        "contract": "contracts/YourContract.sol:YourContract",
        "label": "_operatorApprovals",
        "offset": 0,
        "slot": "5",
        "type": "t_mapping(t_address,t_mapping(t_address,t_bool))"
      },
      {
        "astId": 8,
        "contract": "contracts/YourContract.sol:YourContract",
        "label": "_owner",
        "offset": 0,
        "slot": "6",
        "type": "t_address"
      },
      {
        "astId": 2969,
        "contract": "contracts/YourContract.sol:YourContract",
        "label": "totalSupply",
        "offset": 0,
        "slot": "7",
        "type": "t_uint256"
      },
      {
        "astId": 2973,
        "contract": "contracts/YourContract.sol:YourContract",
        "label": "mintedTokens",
        "offset": 0,
        "slot": "8",
        "type": "t_mapping(t_uint256,t_bool)"
      },
      {
        "astId": 2978,
        "contract": "contracts/YourContract.sol:YourContract",
        "label": "tokenColors",
        "offset": 0,
        "slot": "9",
        "type": "t_mapping(t_uint256,t_struct(RGBColor)2966_storage)"
      }
    ],
    "types": {
      "t_address": {
        "encoding": "inplace",
        "label": "address",
        "numberOfBytes": "20"
      },
      "t_bool": {
        "encoding": "inplace",
        "label": "bool",
        "numberOfBytes": "1"
      },
      "t_mapping(t_address,t_bool)": {
        "encoding": "mapping",
        "key": "t_address",
        "label": "mapping(address => bool)",
        "numberOfBytes": "32",
        "value": "t_bool"
      },
      "t_mapping(t_address,t_mapping(t_address,t_bool))": {
        "encoding": "mapping",
        "key": "t_address",
        "label": "mapping(address => mapping(address => bool))",
        "numberOfBytes": "32",
        "value": "t_mapping(t_address,t_bool)"
      },
      "t_mapping(t_address,t_uint256)": {
        "encoding": "mapping",
        "key": "t_address",
        "label": "mapping(address => uint256)",
        "numberOfBytes": "32",
        "value": "t_uint256"
      },
      "t_mapping(t_uint256,t_address)": {
        "encoding": "mapping",
        "key": "t_uint256",
        "label": "mapping(uint256 => address)",
        "numberOfBytes": "32",
        "value": "t_address"
      },
      "t_mapping(t_uint256,t_bool)": {
        "encoding": "mapping",
        "key": "t_uint256",
        "label": "mapping(uint256 => bool)",
        "numberOfBytes": "32",
        "value": "t_bool"
      },
      "t_mapping(t_uint256,t_struct(RGBColor)2966_storage)": {
        "encoding": "mapping",
        "key": "t_uint256",
        "label": "mapping(uint256 => struct YourContract.RGBColor)",
        "numberOfBytes": "32",
        "value": "t_struct(RGBColor)2966_storage"
      },
      "t_string_storage": {
        "encoding": "bytes",
        "label": "string",
        "numberOfBytes": "32"
      },
      "t_struct(RGBColor)2966_storage": {
        "encoding": "inplace",
        "label": "struct YourContract.RGBColor",
        "members": [
          {
            "astId": 2961,
            "contract": "contracts/YourContract.sol:YourContract",
            "label": "r",
            "offset": 0,
            "slot": "0",
            "type": "t_uint8"
          },
          {
            "astId": 2963,
            "contract": "contracts/YourContract.sol:YourContract",
            "label": "g",
            "offset": 1,
            "slot": "0",
            "type": "t_uint8"
          },
          {
            "astId": 2965,
            "contract": "contracts/YourContract.sol:YourContract",
            "label": "b",
            "offset": 2,
            "slot": "0",
            "type": "t_uint8"
          }
        ],
        "numberOfBytes": "32"
      },
      "t_uint256": {
        "encoding": "inplace",
        "label": "uint256",
        "numberOfBytes": "32"
      },
      "t_uint8": {
        "encoding": "inplace",
        "label": "uint8",
        "numberOfBytes": "1"
      }
    }
  }
}